:100000000C94D8000C9400010C9400010C94000195
:100010000C9400010C9400010C9400010C9400015C
:100020000C9400010C9400010C9400010C9400014C
:100030000C9400010C9400010C9400010C9400013C
:100040000C942B060C9400010C949B060C947506E2
:100050000C9400010C9400010C9400010C9400011C
:100060000C9400010C940001005EBCE2613FDD8352
:10007000C29C7E20A3FD1F419DC3217FFCA2401E88
:100080005F01E3BD3E6082DC237D9FC1421CFEA078
:10009000E1BF5D0380DE3C62BEE0025CDF81633D68
:1000A0007C22C09E1D43A1FF4618FAA427799BC558
:1000B00084DA3866E5BB5907DB856739BAE4065848
:1000C0001947A5FB7826C49A653BD987045AB8E638
:1000D000A7F91B45C6987A24F8A6441A99C7257B28
:1000E0003A6486D85B05E7B98CD2306EEDB3510F18
:1000F0004E10F2AC2F7193CD114FADF3702ECC9208
:10010000D38D6F31B2EC0E50AFF1134DCE90722CF7
:100110006D33D18F0C52B0EE326C8ED0530DEFB1E7
:10012000F0AE4C1291CF2D73CA947628ABF51749D7
:100130000856B4EA6937D58B5709EBB536688AD4C7
:1001400095CB2977F4AA4816E9B7550B88D6346AB7
:100150002B7597C94A14F6A8742AC896154BA9F7A7
:10016000B6E80A54D7896B35000000002500280046
:100170002B0000000000240027002A0000000000DF
:1001800023002600290004040404040404040202D9
:100190000202020203030303030301020408102006
:1001A0004080010204081020010204081020CD063E
:1001B00011241FBECFEFD8E0DEBFCDBF11E0A0E01D
:1001C000B1E0E4EAF7E102C005900D92AE33B10769
:1001D000D9F722E0AEE3B1E001C01D92A530B2072D
:1001E000E1F710E0C8EDD0E004C02197FE010E94C5
:1001F000C50BC73DD107C9F70E946C070C94D00B03
:100200000C94000008953FB7F894809143019091B9
:100210004401A0914501B091460126B5A89B05C0B7
:100220002F3F19F00196A11DB11D3FBFBA2FA92F75
:10023000982F8827820F911DA11DB11DBC01CD01F2
:1002400042E0660F771F881F991F4A95D1F70895DE
:100250008F929F92AF92BF92CF92DF92EF92FF92D6
:100260006B017C010E9403014B015C01C114D104AC
:10027000E104F104F1F00E940301DC01CB018819D3
:100280009909AA09BB09883E9340A105B10570F3FD
:1002900021E0C21AD108E108F10888EE880E83E057
:1002A000981EA11CB11CC114D104E104F10419F77A
:1002B000DDCFFF90EF90DF90CF90BF90AF909F90F9
:1002C0008F900895CF92DF92EF92FF920F931F933A
:1002D000CF93DF936C017A018B01C0E0D0E0CE15A3
:1002E000DF0581F0D8016D918D01D601ED91FC9172
:1002F0000190F081E02DC6010995892B11F021961E
:10030000EECF7E01C701DF91CF911F910F91FF903A
:10031000EF90DF90CF900895089580E090E00895E9
:10032000FC01538D448D252F30E0842F90E0821BFB
:10033000930B541710F0CF96089501970895FC0180
:10034000918D828D981761F0828DDF01A80FB11D0C
:100350005D968C91928D9F5F9F73928F90E0089530
:100360008FEF9FEF0895FC01918D828D981731F0EA
:10037000828DE80FF11D858D90E008958FEF9FEF3E
:100380000895FC01918D228D892F90E0805C9F4F14
:10039000821B91098F739927089587E491E00E9449
:1003A000C10121E0892B09F420E0822F0895FC018E
:1003B000848DDF01A80FB11DA35ABF4F2C91848DEE
:1003C00090E001968F739927848FA689B7892C9323
:1003D000A089B1898C91837080648C93938D848D76
:1003E000981306C00288F389E02D80818F7D808379
:1003F0000895EF92FF920F931F93CF93DF93EC0139
:1004000081E0888F9B8D8C8D981305C0E889F989D0
:10041000808185FD26C0F62E0B8D10E00F5F1F4FEB
:100420000F731127E02E8C8DE8120CC00FB607FC5D
:10043000FACFE889F989808185FFF5CFCE010E9446
:10044000D701F1CF8B8DFE01E80FF11DE35AFF4F6D
:10045000F0829FB7F8940B8FEA89FB8980818062D4
:100460000AC09FB7F894EE89FF896083E889F9890B
:1004700080818370806480839FBF81E090E0DF9102
:10048000CF911F910F91FF90EF900895682F87E40F
:1004900091E00C94F901CF93DF93EC01888D8823D0
:1004A000C9F0EA89FB89808185FD05C0A889B989E1
:1004B0008C9186FD0FC00FB607FCF5CF808185FFBC
:1004C000F2CFA889B9898C9185FFEDCFCE010E942A
:1004D000D701E7CFDF91CF91089580E090E0892B9D
:1004E00029F00E94CD0181110C9400000895DC01D7
:1004F00080E0615040F09D91E82FE927F0E0E85955
:10050000FF4F8491F6CF0895FC0190810180F28124
:10051000E02DF8948181892B81832281892F809518
:1005200028232283A7E0B0E01197F1F721818223ED
:100530008183A3E2B0E01197F1F780817894EFEC2A
:10054000F0E03197F1F7982381E009F480E0089515
:10055000FC0190810180F281E02D892F809560FF60
:1005600012C0F8942281822382838181892B818326
:10057000A3E2B0E01197F1F78281982B92837894EF
:1005800087ED90E011C0F8942281822382838181DB
:10059000892B8183AFEFB0E01197F1F78281982B1F
:1005A000928378948FE090E00197F1F70895DF92BD
:1005B000EF92FF920F931F93CF93DF93EC01D62E10
:1005C000E42E08E010E0FF24F39461E08D2D8F21EC
:1005D00009F460E0CE010E94A802FF0C015011094D
:1005E000A1F7E11010C0F894E981FA819181888126
:1005F000809589238183E981FA8192818881809520
:10060000892382837894DF91CF911F910F91FF907E
:10061000EF90DF900895EF92FF920F931F93CF9387
:10062000DF938C017B0140E065E50E94D702E70182
:1006300088E0E80EF11C699140E0C8010E94D702F1
:10064000CE15DF05C1F7DF91CF911F910F91FF907C
:10065000EF900895DC012C911196ED91FC91129789
:10066000F8948181922F90958923818378948DE7E6
:1006700043E050E0815021F1DA011197F1F7308128
:100680003223C1F3F8948281892382838181822B72
:1006900081837894ABE7B7E01197F1F7F894818103
:1006A0009823918383E191E00197F1F780812823DA
:1006B00081E009F080E07894E3E6F6E03197F1F725
:1006C0000895AF92BF92CF92DF92EF92FF920F9375
:1006D0001F93CF93DF938B01BC018091E90190912F
:1006E000EA010E940B0340E06EEB8091E9019091DA
:1006F000EA010E94D702E801680189E0C80ED11C16
:10070000A090E901B090EA0188E0E82EF12C10E019
:1007100001E0C5010E9484028111102B000F81E0CD
:10072000E81AF108B1F71993CC16DD0649F7809164
:10073000E9019091EA010E942A0391E0813009F0D9
:1007400090E0892FDF91CF911F910F91FF90EF9053
:10075000DF90CF90BF90AF9008950F931F93CF93EA
:10076000DF93CDB7DEB729970FB6F894DEBF0FBE83
:10077000CDBF8C018091E9019091EA010E942A038A
:10078000882309F43FC0BE016F5F7F4FC8010E94FC
:1007900061038823B9F168E0CE0101960E947702D7
:1007A000998589132FC02A8130E0A901542F44274D
:1007B000550F550F550F898128E0829FC0011124E4
:1007C0009A01282B392BF80180818031C9F4688582
:1007D00070E08F81AB01481B5109CA019695982F93
:1007E0008827979587950E947B0BCB014097207FA8
:1007F00053E0220F331F5A95E1F7820F931F04C075
:10080000C90102C080E894EE29960FB6F894DEBFC5
:100810000FBECDBFDF91CF911F910F9108950F9320
:100820001F93CF93DF93CDB7DEB729970FB6F89418
:10083000DEBF0FBECDBF8C018091E9019091EA012E
:100840000E942A03882309F1BE016F5F7F4FC80110
:100850000E9461038823C9F068E0CE0101960E94DE
:1008600077029985891311C08D818F3361F020F44F
:100870008F3159F489E00CC08F3519F08F3739F07A
:1008800004C08BE005C08AE003C080E001C08CE0BA
:1008900029960FB6F894DEBF0FBECDBFDF91CF9182
:1008A0001F910F910895BF92CF92DF92EF92FF9226
:1008B0000F931F93CF93DF93EC016B018D85811113
:1008C00005C0CE010E942A03811105C01B861D862A
:1008D0001C8680E060C040E060EFCE010E94D7023D
:1008E00001E0E12CB12C11E0CE010E948402F82E2F
:1008F000CE010E94840291E0F91203C08130B1F46C
:1009000034C02E2D30E0F8121BC08B85181738F438
:10091000FE01E20FF31F8381802341F402C081179F
:1009200029F0F12C193058F41C8709C0FE01EE0D96
:10093000F11D8381802B8383FF24F39409C0B12EA2
:10094000FE01E20FF31F9381802F8095892383831B
:100950006F2DCE010E94A8021F5F000F11F4E394D7
:1009600001E087E08E1508F0BFCF113408F4AECF58
:10097000BB86B11002C081E08D878B81882309F48A
:10098000A5CFDE011396F6012B968D918193CA17A0
:10099000DB07D9F781E0DF91CF911F910F91FF9095
:1009A000EF90DF90CF90BF900895CF93DF93EC014D
:1009B000E091E901F091EA01138615861486DF01C2
:1009C0001B96CF0103961E92A817B907E1F7BE0147
:1009D000CF010E945304882349F067E0CE010E94B2
:1009E00077029F81891302C081E001C080E0DF911E
:1009F000CF910895009769F0FC0101900020E9F77C
:100A00003197AF01481B590BBC0187E491E00C946E
:100A1000620180E090E008952F923F924F925F92A2
:100A20006F927F928F929F92AF92BF92CF92DF92FE
:100A3000EF92FF920F931F93CF93DF93CDB7DEB763
:100A4000A4970FB6F894DEBF0FBECDBF4B015C017B
:100A5000F42E9B01AC010E94760B882319F088E1EB
:100A600091E027C024013501E89477F82FEF3FEF9C
:100A70004FE75FE7C301B2010E94760B81110DC001
:100A80002FEF3FEF4FE75FE7C301B2010E94AC09D0
:100A900018161CF48CE191E00CC02FEF3FEF4FE7EC
:100AA0005FE4C501B4010E94040B18162CF480E227
:100AB00091E00E94FA04B4C02FEF3FEF4FE75FECE4
:100AC000C501B4010E94AC0987FDF1CF20E030E000
:100AD000A901C501B4010E94AC0987FF09C08DE2DC
:100AE0000E9446023C01B7FAB094B7F8B09402C035
:100AF000612C712C10E060E070E080E09FE3F11663
:100B000041F020E030E040E251E40E94B1091F5F73
:100B1000F6CFA50194010E9440094B015C010E949F
:100B2000230A6AA3C72ED82EE92E19A2262F372F03
:100B3000482F592F8E010F5D1F4F0BA31CA39AE066
:100B4000292E312C412C512CCA01B901A20191014D
:100B50000E948F0B605DF80162938F0121153105B2
:100B60004105510589F7CF010E94FA048301080F5E
:100B7000191FFF2009F453C06AA17C2D8D2D9E2DD5
:100B80000E94520A9B01AC01C501B4010E943F09B9
:100B90004B015C018EE20E944602080F191F8AE099
:100BA000282E312C412C512C20E030E040E251E441
:100BB000C501B4010E94090B4B015C010E94230A8C
:100BC0009B0140E050E019A2CBA0DCA0762E3AA316
:100BD000642EE52ECA01B901A20191010E948F0B7A
:100BE000605DF60162936F012115310541055105E4
:100BF00089F7CF010E94FA04080F191F672D7AA107
:100C0000862D9E2D0E94520A9B01AC01C501B401A4
:100C10000E943F094B015C01FA94F110C5CFC80155
:100C2000A4960FB6F894DEBF0FBECDBFDF91CF9173
:100C30001F910F91FF90EF90DF90CF90BF90AF90FA
:100C40009F908F907F906F905F904F903F902F90EC
:100C500008950E94CB0B1F920F920FB60F92112492
:100C60002F933F938F939F93AF93BF9380913F01B7
:100C700090914001A0914101B091420130913E011B
:100C800023E0230F2D3720F40196A11DB11D05C0CF
:100C900026E8230F0296A11DB11D20933E018093EB
:100CA0003F0190934001A0934101B0934201809194
:100CB000430190914401A0914501B09146010196F4
:100CC000A11DB11D8093430190934401A093450160
:100CD000B0934601BF91AF919F918F913F912F911A
:100CE0000F900FBE0F901F9018951F920F920FB686
:100CF0000F9211242F933F934F935F936F937F93A2
:100D00008F939F93AF93BF93EF93FF9387E491E00B
:100D10000E94D701FF91EF91BF91AF919F918F9169
:100D20007F916F915F914F913F912F910F900FBEE7
:100D30000F901F9018951F920F920FB60F921124CB
:100D40002F938F939F93EF93FF93E0915701F0912F
:100D500058018081E0915D01F0915E0182FD12C039
:100D60009081809160018F5F8F7320916101821764
:100D700051F0E0916001F0E0E95BFE4F958F8093C8
:100D8000600101C08081FF91EF919F918F912F9120
:100D90000F900FBE0F901F901895CF93DF93109276
:100DA0004A011092490188EE93E0A0E0B0E0809300
:100DB0004B0190934C01A0934D01B0934E018AE0FA
:100DC00091E0909348018093470185EC90E09093E7
:100DD00054018093530184EC90E0909356018093EA
:100DE000550180EC90E0909358018093570181EC7D
:100DF00090E090935A018093590182EC90E0909397
:100E00005C0180935B0186EC90E090935E0180939F
:100E10005D011092600110926101109262011092C6
:100E20006301ECE9F1E02491E8E8F1E084918823A2
:100E3000C1F090E0880F991FFC01EE58FE4FC5915C
:100E4000D491FC01E859FE4FA591B4919FB7F89455
:100E50008881E22FE0958E2388838C91E823EC93A0
:100E60009FBFECE9F1E0E491E093F701E8E8F1E0FD
:100E7000E491F0E0EE0FFF1FE458FE4F859194914E
:100E80009093F9018093F8011092020210920402EB
:100E900010920302E2E0F2E0129281E0EA3FF807EA
:100EA000D9F782E091E09093F6018093F50187EF06
:100EB00091E09093EA018093E9011092E801109289
:100EC000E40189E08093E50181E08093E60180936D
:100ED000E701DF91CF910895CF93DF93CDB7DEB7D0
:100EE00028970FB6F894DEBF0FBECDBF789484B5B7
:100EF000826084BD84B5816084BD85B5826085BD16
:100F000085B5816085BD80916E00816080936E00A3
:100F10001092810080918100826080938100809195
:100F20008100816080938100809180008160809346
:100F300080008091B10084608093B1008091B00006
:100F400081608093B00080917A00846080937A0001
:100F500080917A00826080937A0080917A0081602B
:100F600080937A0080917A00806880937A00109252
:100F7000C100E091E901F091EA011386158614861B
:100F8000DF011B9633961E92EA17FB07E1F71092DA
:100F9000E80101E0BE016F5F7F4F8091E901909110
:100FA000EA010E945304882309F453C067E0CE018C
:100FB00001960E94770298858913ECCF8091E40115
:100FC000811127C08091E9019091EA010E942A03D2
:100FD000BE016F5F7F4F8091E9019091EA010E940D
:100FE0000B0340E064EB8091E9019091EA010E94DB
:100FF000D7028091E9019091EA010E948402182FA2
:101000008091E9019091EA010E942A03112309F4D9
:101010002FC11091E5018981803109F42CC1CE01E5
:1010200001960E940F04811718F48091E50109C010
:101030008981803111F48CE004C0CE0101960E94B8
:101040000F048093E5018091E8018F5F8093E801B0
:10105000A1CFE0915701F091580182E08083E091A7
:101060005301F09154011082E0915501F091560125
:101070008FEC808310925F01E0915B01F0915C0145
:1010800086E08083E0915901F0915A01808180616E
:101090008083E0915901F0915A01808188608083BA
:1010A000E0915901F0915A01808180688083E0913C
:1010B0005901F0915A0180818F7D80838091E901EF
:1010C0009091EA010E942A0340E06CEC8091E901D2
:1010D0009091EA010E94D7024091E40164E480917A
:1010E000E9019091EA010E94D7028091E6018823EC
:1010F00009F449C0E091E501E950E33040F4F0E043
:10110000EE0FFF1FE050FF4F6081718102C06EEE55
:1011100072E08091E701882381F18091E4018111DF
:101120002CC08FB7F89480903F0190904001A09020
:101130004101B09042018FBF6B01770FEE08FF08AD
:101140008091E9019091EA010E9484028130D9F0F6
:101150002FB7F89480913F0190914001A0914101F7
:10116000B09142012FBF8C199D09AE09BF098815A6
:101170009905AA05BB0520F306C0072E000C880BB5
:10118000990B0E94280184E291E00E94FA04CE01AA
:1011900001960E94D504811105C060E070E08EEFD9
:1011A00092EC14C0CE0101960E94AD03813824EE6A
:1011B00092079CF3BC01990F880B990B0E94540A6B
:1011C00020E030E040E05CE30E94090B42E00E9436
:1011D0000C0580EB0E94460282E391E00E94FA0433
:1011E000CE0101960E94D504811105C060E070E037
:1011F0008EEF92EC14C0CE0101960E94AD038138AF
:1012000024EE92079CF3BC01990F880B990B0E9466
:10121000540A20E030E040E05CE30E94090B20E04B
:1012200030E040E151E40E94090B20E030E040EA68
:1012300050E40E94B10920E030E040E052E40E9416
:10124000400942E00E940C0580EB0E94460289E3BF
:1012500091E00E94FA048BE391E00E94FA0464EFAB
:1012600071E080E090E00E9428010E946D0226CF8C
:101270000093E401CECE1D3008F0D7CEDCCE50581E
:10128000BB27AA270E9457090C94CA0A0E94BC0ACD
:1012900038F00E94C30A20F039F49F3F19F426F475
:1012A0000C94B90A0EF4E095E7FB0C94B30AE92F0D
:1012B0000E94DB0A58F3BA17620773078407950781
:1012C00020F079F4A6F50C94FD0A0EF4E0950B2EAF
:1012D000BA2FA02D0B01B90190010C01CA01A00188
:1012E0001124FF27591B99F0593F50F4503E68F1E3
:1012F0001A16F040A22F232F342F4427585FF3CF24
:10130000469537952795A795F0405395C9F77EF4F4
:101310001F16BA0B620B730B840BBAF09150A1F03D
:10132000FF0FBB1F661F771F881FC2F70EC0BA0FC3
:10133000621F731F841F48F4879577956795B7954B
:10134000F7959E3F08F0B0CF9395880F08F0992746
:10135000EE0F9795879508950E948F0A08F481E013
:1013600008950E94C5090C94CA0A0E94C30A58F045
:101370000E94BC0A40F029F45F3F29F00C94B30AA4
:1013800051110C94FE0A0C94B90A0E94DB0A68F30E
:101390009923B1F3552391F3951B550BBB27AA272E
:1013A00062177307840738F09F5F5F4F220F331F68
:1013B000441FAA1FA9F335D00E2E3AF0E0E832D030
:1013C00091505040E695001CCAF72BD0FE2F29D033
:1013D000660F771F881FBB1F261737074807AB0705
:1013E000B0E809F0BB0B802DBF01FF2793585F4F7A
:1013F0003AF09E3F510578F00C94B30A0C94FE0A23
:101400005F3FE4F3983ED4F3869577956795B7955B
:10141000F7959F5FC9F7880F911D9695879597F966
:101420000895E1E0660F771F881FBB1F62177307DF
:101430008407BA0720F0621B730B840BBA0BEE1FF4
:1014400088F7E09508950E94E30A88F09F5798F086
:10145000B92F9927B751B0F0E1F0660F771F881FB9
:10146000991F1AF0BA95C9F714C0B13091F00E94D3
:10147000FD0AB1E008950C94FD0A672F782F8827A4
:10148000B85F39F0B93FCCF3869577956795B395FA
:10149000D9F73EF490958095709561957F4F8F4F69
:1014A0009F4F0895E89409C097FB3EF4909580956E
:1014B000709561957F4F8F4F9F4F9923A9F0F92F1A
:1014C00096E9BB279395F695879577956795B79598
:1014D000F111F8CFFAF4BB0F11F460FF1BC06F5F7E
:1014E0007F4F8F4F9F4F16C0882311F096E911C090
:1014F000772321F09EE8872F762F05C0662371F0B1
:1015000096E8862F70E060E02AF09A95660F771FC4
:10151000881FDAF7880F9695879597F90895990FA0
:101520000008550FAA0BE0E8FEEF16161706E807AD
:10153000F907C0F012161306E407F50798F0621BCE
:10154000730B840B950B39F40A2661F0232B242BA3
:10155000252B21F408950A2609F4A140A6958FEFC2
:10156000811D811D089597F99F6780E870E060E014
:1015700008959FEF80EC089500240A94161617062C
:1015800018060906089500240A9412161306140674
:1015900005060895092E0394000C11F4882352F0D7
:1015A000BB0F40F4BF2B11F460FF04C06F5F7F4F8F
:1015B0008F4F9F4F089557FD9058440F551F59F076
:1015C0005F3F71F04795880F97FB991F61F09F3F30
:1015D00079F087950895121613061406551FF2CF59
:1015E0004695F1DF08C0161617061806991FF1CFA9
:1015F00086957105610508940895E894BB276627D0
:101600007727CB0197F908950E948F0A08F48FEF8E
:1016100008950E941C0B0C94CA0A0E94BC0A38F060
:101620000E94C30A20F0952311F00C94B30A0C9485
:10163000B90A11240C94FE0A0E94DB0A70F3959FEC
:10164000C1F3950F50E0551F629FF001729FBB27B9
:10165000F00DB11D639FAA27F00DB11DAA1F649F55
:101660006627B00DA11D661F829F2227B00DA11D08
:10167000621F739FB00DA11D621F839FA00D611D8E
:10168000221F749F3327A00D611D231F849F600DAF
:10169000211D822F762F6A2F11249F5750409AF0D8
:1016A000F1F088234AF0EE0FFF1FBB1F661F771F64
:1016B000881F91505040A9F79E3F510580F00C942F
:1016C000B30A0C94FE0A5F3FE4F3983ED4F3869588
:1016D00077956795B795F795E7959F5FC1F7FE2BCF
:1016E000880F911D9695879597F908950E948F0A06
:1016F000880B990B089597FB072E16F4009407D0DA
:1017000077FD09D00E94B10B07FC05D03EF49095FF
:1017100081959F4F0895709561957F4F0895A1E23F
:101720001A2EAA1BBB1BFD010DC0AA1FBB1FEE1F5B
:10173000FF1FA217B307E407F50720F0A21BB30BA6
:10174000E40BF50B661F771F881F991F1A9469F722
:1017500060957095809590959B01AC01BD01CF017E
:101760000895AA1BBB1B51E107C0AA1FBB1FA617E8
:10177000B70710F0A61BB70B881F991F5A95A9F73A
:1017800080959095BC01CD010895EE0FFF1F059047
:10179000F491E02D099481E090E0F8940C94D00B42
:0417A000F894FFCFEB
:1017A4005E00BC00770100000000F90162019001B5
:1017B4004B02C1019F01B3016E616E00696E660048
:1017C4006F76660054656D70657261747572653A02
:0E17D40020004320207C20200046000D0A004B
:00000001FF
